{
  "contractName": "Blockify",
  "abi": [
    {
      "inputs": [],
      "stateMutability": "nonpayable",
      "type": "constructor"
    },
    {
      "anonymous": false,
      "inputs": [
        {
          "indexed": false,
          "internalType": "uint256",
          "name": "amount",
          "type": "uint256"
        },
        {
          "indexed": false,
          "internalType": "address payable",
          "name": "artistAddr",
          "type": "address"
        },
        {
          "indexed": false,
          "internalType": "address",
          "name": "donarAddr",
          "type": "address"
        }
      ],
      "name": "ArtistDonatedEvent",
      "type": "event"
    },
    {
      "anonymous": false,
      "inputs": [
        {
          "indexed": false,
          "internalType": "string",
          "name": "songHash",
          "type": "string"
        },
        {
          "indexed": false,
          "internalType": "uint256",
          "name": "updatedCost",
          "type": "uint256"
        }
      ],
      "name": "SongDislikedEvent",
      "type": "event"
    },
    {
      "anonymous": false,
      "inputs": [
        {
          "indexed": false,
          "internalType": "string",
          "name": "songHash",
          "type": "string"
        },
        {
          "indexed": false,
          "internalType": "uint256",
          "name": "updatedCost",
          "type": "uint256"
        }
      ],
      "name": "SongLikedEvent",
      "type": "event"
    },
    {
      "anonymous": false,
      "inputs": [
        {
          "indexed": false,
          "internalType": "string",
          "name": "name",
          "type": "string"
        },
        {
          "indexed": false,
          "internalType": "string",
          "name": "hash",
          "type": "string"
        },
        {
          "indexed": false,
          "internalType": "address payable",
          "name": "artistAddr",
          "type": "address"
        },
        {
          "indexed": false,
          "internalType": "uint256",
          "name": "cost",
          "type": "uint256"
        },
        {
          "indexed": false,
          "internalType": "address",
          "name": "buyerAddr",
          "type": "address"
        }
      ],
      "name": "SongPurchaseEvent",
      "type": "event"
    },
    {
      "anonymous": false,
      "inputs": [
        {
          "indexed": false,
          "internalType": "string",
          "name": "name",
          "type": "string"
        },
        {
          "indexed": false,
          "internalType": "string",
          "name": "hash",
          "type": "string"
        },
        {
          "indexed": false,
          "internalType": "address payable",
          "name": "artistAddr",
          "type": "address"
        },
        {
          "indexed": false,
          "internalType": "uint256",
          "name": "cost",
          "type": "uint256"
        }
      ],
      "name": "SongUploadEvent",
      "type": "event"
    },
    {
      "anonymous": false,
      "inputs": [
        {
          "indexed": false,
          "internalType": "string",
          "name": "userName",
          "type": "string"
        },
        {
          "indexed": false,
          "internalType": "address",
          "name": "addr",
          "type": "address"
        }
      ],
      "name": "UserRegisterEvent",
      "type": "event"
    },
    {
      "inputs": [],
      "name": "CHANGE",
      "outputs": [
        {
          "internalType": "uint256",
          "name": "",
          "type": "uint256"
        }
      ],
      "stateMutability": "view",
      "type": "function"
    },
    {
      "inputs": [
        {
          "internalType": "string",
          "name": "userName",
          "type": "string"
        }
      ],
      "name": "registerUser",
      "outputs": [],
      "stateMutability": "nonpayable",
      "type": "function"
    },
    {
      "inputs": [
        {
          "internalType": "string",
          "name": "songName",
          "type": "string"
        },
        {
          "internalType": "string",
          "name": "songHash",
          "type": "string"
        },
        {
          "internalType": "uint256",
          "name": "songCost",
          "type": "uint256"
        }
      ],
      "name": "uploadSong",
      "outputs": [],
      "stateMutability": "nonpayable",
      "type": "function"
    },
    {
      "inputs": [
        {
          "internalType": "string",
          "name": "songHash",
          "type": "string"
        }
      ],
      "name": "purchaseSong",
      "outputs": [],
      "stateMutability": "payable",
      "type": "function"
    },
    {
      "inputs": [
        {
          "internalType": "string",
          "name": "songHash",
          "type": "string"
        }
      ],
      "name": "likeSong",
      "outputs": [],
      "stateMutability": "nonpayable",
      "type": "function"
    },
    {
      "inputs": [
        {
          "internalType": "string",
          "name": "songHash",
          "type": "string"
        }
      ],
      "name": "dislikeSong",
      "outputs": [],
      "stateMutability": "nonpayable",
      "type": "function"
    },
    {
      "inputs": [
        {
          "internalType": "address payable",
          "name": "artistAddress",
          "type": "address"
        }
      ],
      "name": "donateToArtist",
      "outputs": [],
      "stateMutability": "payable",
      "type": "function"
    },
    {
      "inputs": [
        {
          "internalType": "string",
          "name": "a",
          "type": "string"
        },
        {
          "internalType": "string",
          "name": "b",
          "type": "string"
        }
      ],
      "name": "compareStrings",
      "outputs": [
        {
          "internalType": "bool",
          "name": "",
          "type": "bool"
        }
      ],
      "stateMutability": "pure",
      "type": "function"
    }
  ],
  "bytecode": "0x608060405234801561001057600080fd5b50600080819055506000600181905550600060028190555061212f806100376000396000f3fe60806040526004361061007a5760003560e01c8063886824341161004e5780638868243414610118578063bed34bba14610141578063e9a50f311461017e578063eabb0477146101a75761007a565b8062b8d61b1461007f5780633479d030146100a8578063704f1b94146100d35780637a2a0cdf146100fc575b600080fd5b34801561008b57600080fd5b506100a660048036038101906100a191906115c6565b6101c3565b005b3480156100b457600080fd5b506100bd610499565b6040516100ca9190611660565b60405180910390f35b3480156100df57600080fd5b506100fa60048036038101906100f5919061167b565b6104a4565b005b61011660048036038101906101119190611722565b6105da565b005b34801561012457600080fd5b5061013f600480360381019061013a919061167b565b61086e565b005b34801561014d57600080fd5b506101686004803603810190610163919061174f565b610c00565b60405161017591906117e2565b60405180910390f35b34801561018a57600080fd5b506101a560048036038101906101a0919061167b565b610c59565b005b6101c160048036038101906101bc919061167b565b610fed565b005b336102a7600360008373ffffffffffffffffffffffffffffffffffffffff1673ffffffffffffffffffffffffffffffffffffffff16815260200190815260200160002060010180546102149061182c565b80601f01602080910402602001604051908101604052809291908181526020018280546102409061182c565b801561028d5780601f106102625761010080835404028352916020019161028d565b820191906000526020600020905b81548152906001019060200180831161027057829003601f168201915b505050505060405180602001604052806000815250610c00565b156102e7576040517f08c379a00000000000000000000000000000000000000000000000000000000081526004016102de906118ba565b60405180910390fd5b6103a96005846040516102fa919061194b565b908152602001604051809103902060000180546103169061182c565b80601f01602080910402602001604051908101604052809291908181526020018280546103429061182c565b801561038f5780601f106103645761010080835404028352916020019161038f565b820191906000526020600020905b81548152906001019060200180831161037257829003601f168201915b505050505060405180602001604052806000815250610c00565b156103e9576040517f08c379a00000000000000000000000000000000000000000000000000000000081526004016103e0906119ae565b60405180910390fd5b60006005846040516103fb919061194b565b908152602001604051809103902090508481600001908161041c9190611b7a565b508381600101908161042e9190611b7a565b50828160030181905550338160020160006101000a81548173ffffffffffffffffffffffffffffffffffffffff021916908373ffffffffffffffffffffffffffffffffffffffff16021790555060008081548092919061048d90611c7b565b91905055505050505050565b662386f26fc1000081565b6104bd8160405180602001604052806000815250610c00565b156104fd576040517f08c379a00000000000000000000000000000000000000000000000000000000081526004016104f490611d0f565b60405180910390fd5b60068160405161050d919061194b565b908152602001604051809103902060009054906101000a900460ff1615610569576040517f08c379a000000000000000000000000000000000000000000000000000000000815260040161056090611d7b565b60405180910390fd5b6000600360003373ffffffffffffffffffffffffffffffffffffffff1673ffffffffffffffffffffffffffffffffffffffff1681526020019081526020016000209050818160010190816105bd9190611b7a565b50600160008154809291906105d190611c7b565b91905055505050565b336106be600360008373ffffffffffffffffffffffffffffffffffffffff1673ffffffffffffffffffffffffffffffffffffffff168152602001908152602001600020600101805461062b9061182c565b80601f01602080910402602001604051908101604052809291908181526020018280546106579061182c565b80156106a45780601f10610679576101008083540402835291602001916106a4565b820191906000526020600020905b81548152906001019060200180831161068757829003601f168201915b505050505060405180602001604052806000815250610c00565b156106fe576040517f08c379a00000000000000000000000000000000000000000000000000000000081526004016106f5906118ba565b60405180910390fd5b816107e2600360008373ffffffffffffffffffffffffffffffffffffffff1673ffffffffffffffffffffffffffffffffffffffff168152602001908152602001600020600101805461074f9061182c565b80601f016020809104026020016040519081016040528092919081815260200182805461077b9061182c565b80156107c85780601f1061079d576101008083540402835291602001916107c8565b820191906000526020600020905b8154815290600101906020018083116107ab57829003601f168201915b505050505060405180602001604052806000815250610c00565b15610822576040517f08c379a0000000000000000000000000000000000000000000000000000000008152600401610819906118ba565b60405180910390fd5b8273ffffffffffffffffffffffffffffffffffffffff166108fc349081150290604051600060405180830381858888f19350505050158015610868573d6000803e3d6000fd5b50505050565b33610952600360008373ffffffffffffffffffffffffffffffffffffffff1673ffffffffffffffffffffffffffffffffffffffff16815260200190815260200160002060010180546108bf9061182c565b80601f01602080910402602001604051908101604052809291908181526020018280546108eb9061182c565b80156109385780601f1061090d57610100808354040283529160200191610938565b820191906000526020600020905b81548152906001019060200180831161091b57829003601f168201915b505050505060405180602001604052806000815250610c00565b15610992576040517f08c379a0000000000000000000000000000000000000000000000000000000008152600401610989906118ba565b60405180910390fd5b81610a556005826040516109a6919061194b565b908152602001604051809103902060000180546109c29061182c565b80601f01602080910402602001604051908101604052809291908181526020018280546109ee9061182c565b8015610a3b5780601f10610a1057610100808354040283529160200191610a3b565b820191906000526020600020905b815481529060010190602001808311610a1e57829003601f168201915b505050505060405180602001604052806000815250610c00565b15610a95576040517f08c379a0000000000000000000000000000000000000000000000000000000008152600401610a8c90611e0d565b60405180910390fd5b60038060003373ffffffffffffffffffffffffffffffffffffffff1673ffffffffffffffffffffffffffffffffffffffff16815260200190815260200160002060030184604051610ae6919061194b565b908152602001604051809103902060009054906101000a900460ff1660ff1603610b45576040517f08c379a0000000000000000000000000000000000000000000000000000000008152600401610b3c90611e79565b60405180910390fd5b662386f26fc10000600584604051610b5d919061194b565b90815260200160405180910390206003016000828254610b7d9190611e99565b9250508190555060038060003373ffffffffffffffffffffffffffffffffffffffff1673ffffffffffffffffffffffffffffffffffffffff16815260200190815260200160002060030184604051610bd5919061194b565b908152602001604051809103902060006101000a81548160ff021916908360ff160217905550505050565b600081604051602001610c13919061194b565b6040516020818303038152906040528051906020012083604051602001610c3a919061194b565b6040516020818303038152906040528051906020012014905092915050565b33610d3d600360008373ffffffffffffffffffffffffffffffffffffffff1673ffffffffffffffffffffffffffffffffffffffff1681526020019081526020016000206001018054610caa9061182c565b80601f0160208091040260200160405190810160405280929190818152602001828054610cd69061182c565b8015610d235780601f10610cf857610100808354040283529160200191610d23565b820191906000526020600020905b815481529060010190602001808311610d0657829003601f168201915b505050505060405180602001604052806000815250610c00565b15610d7d576040517f08c379a0000000000000000000000000000000000000000000000000000000008152600401610d74906118ba565b60405180910390fd5b81610e40600582604051610d91919061194b565b90815260200160405180910390206000018054610dad9061182c565b80601f0160208091040260200160405190810160405280929190818152602001828054610dd99061182c565b8015610e265780601f10610dfb57610100808354040283529160200191610e26565b820191906000526020600020905b815481529060010190602001808311610e0957829003601f168201915b505050505060405180602001604052806000815250610c00565b15610e80576040517f08c379a0000000000000000000000000000000000000000000000000000000008152600401610e7790611e0d565b60405180910390fd5b6002600360003373ffffffffffffffffffffffffffffffffffffffff1673ffffffffffffffffffffffffffffffffffffffff16815260200190815260200160002060030184604051610ed2919061194b565b908152602001604051809103902060009054906101000a900460ff1660ff1603610f31576040517f08c379a0000000000000000000000000000000000000000000000000000000008152600401610f2890611f3f565b60405180910390fd5b662386f26fc10000600584604051610f49919061194b565b90815260200160405180910390206003016000828254610f699190611f5f565b925050819055506002600360003373ffffffffffffffffffffffffffffffffffffffff1673ffffffffffffffffffffffffffffffffffffffff16815260200190815260200160002060030184604051610fc2919061194b565b908152602001604051809103902060006101000a81548160ff021916908360ff160217905550505050565b336110d1600360008373ffffffffffffffffffffffffffffffffffffffff1673ffffffffffffffffffffffffffffffffffffffff168152602001908152602001600020600101805461103e9061182c565b80601f016020809104026020016040519081016040528092919081815260200182805461106a9061182c565b80156110b75780601f1061108c576101008083540402835291602001916110b7565b820191906000526020600020905b81548152906001019060200180831161109a57829003601f168201915b505050505060405180602001604052806000815250610c00565b15611111576040517f08c379a0000000000000000000000000000000000000000000000000000000008152600401611108906118ba565b60405180910390fd5b816111d4600582604051611125919061194b565b908152602001604051809103902060000180546111419061182c565b80601f016020809104026020016040519081016040528092919081815260200182805461116d9061182c565b80156111ba5780601f1061118f576101008083540402835291602001916111ba565b820191906000526020600020905b81548152906001019060200180831161119d57829003601f168201915b505050505060405180602001604052806000815250610c00565b15611214576040517f08c379a000000000000000000000000000000000000000000000000000000000815260040161120b90611e0d565b60405180910390fd5b6000600360003373ffffffffffffffffffffffffffffffffffffffff1673ffffffffffffffffffffffffffffffffffffffff16815260200190815260200160002060030184604051611266919061194b565b908152602001604051809103902060009054906101000a900460ff1660ff16146112c5576040517f08c379a00000000000000000000000000000000000000000000000000000000081526004016112bc90612005565b60405180910390fd5b3460016005856040516112d8919061194b565b9081526020016040518091039020600301546112f49190612025565b14611334576040517f08c379a000000000000000000000000000000000000000000000000000000000815260040161132b906120d9565b60405180910390fd5b600583604051611344919061194b565b908152602001604051809103902060020160009054906101000a900473ffffffffffffffffffffffffffffffffffffffff1673ffffffffffffffffffffffffffffffffffffffff166108fc349081150290604051600060405180830381858888f193505050501580156113bb573d6000803e3d6000fd5b50600360003373ffffffffffffffffffffffffffffffffffffffff1673ffffffffffffffffffffffffffffffffffffffff168152602001908152602001600020600201839080600181540180825580915050600190039060005260206000200160009091909190915090816114309190611b7a565b50505050565b6000604051905090565b600080fd5b600080fd5b600080fd5b600080fd5b6000601f19601f8301169050919050565b7f4e487b7100000000000000000000000000000000000000000000000000000000600052604160045260246000fd5b61149d82611454565b810181811067ffffffffffffffff821117156114bc576114bb611465565b5b80604052505050565b60006114cf611436565b90506114db8282611494565b919050565b600067ffffffffffffffff8211156114fb576114fa611465565b5b61150482611454565b9050602081019050919050565b82818337600083830152505050565b600061153361152e846114e0565b6114c5565b90508281526020810184848401111561154f5761154e61144f565b5b61155a848285611511565b509392505050565b600082601f8301126115775761157661144a565b5b8135611587848260208601611520565b91505092915050565b6000819050919050565b6115a381611590565b81146115ae57600080fd5b50565b6000813590506115c08161159a565b92915050565b6000806000606084860312156115df576115de611440565b5b600084013567ffffffffffffffff8111156115fd576115fc611445565b5b61160986828701611562565b935050602084013567ffffffffffffffff81111561162a57611629611445565b5b61163686828701611562565b9250506040611647868287016115b1565b9150509250925092565b61165a81611590565b82525050565b60006020820190506116756000830184611651565b92915050565b60006020828403121561169157611690611440565b5b600082013567ffffffffffffffff8111156116af576116ae611445565b5b6116bb84828501611562565b91505092915050565b600073ffffffffffffffffffffffffffffffffffffffff82169050919050565b60006116ef826116c4565b9050919050565b6116ff816116e4565b811461170a57600080fd5b50565b60008135905061171c816116f6565b92915050565b60006020828403121561173857611737611440565b5b60006117468482850161170d565b91505092915050565b6000806040838503121561176657611765611440565b5b600083013567ffffffffffffffff81111561178457611783611445565b5b61179085828601611562565b925050602083013567ffffffffffffffff8111156117b1576117b0611445565b5b6117bd85828601611562565b9150509250929050565b60008115159050919050565b6117dc816117c7565b82525050565b60006020820190506117f760008301846117d3565b92915050565b7f4e487b7100000000000000000000000000000000000000000000000000000000600052602260045260246000fd5b6000600282049050600182168061184457607f821691505b602082108103611857576118566117fd565b5b50919050565b600082825260208201905092915050565b7f55736572206e6f7420726567697374657265642e000000000000000000000000600082015250565b60006118a460148361185d565b91506118af8261186e565b602082019050919050565b600060208201905081810360008301526118d381611897565b9050919050565b600081519050919050565b600081905092915050565b60005b8381101561190e5780820151818401526020810190506118f3565b60008484015250505050565b6000611925826118da565b61192f81856118e5565b935061193f8185602086016118f0565b80840191505092915050565b6000611957828461191a565b915081905092915050565b7f536f6e6720616c72656164792065786973747300000000000000000000000000600082015250565b600061199860138361185d565b91506119a382611962565b602082019050919050565b600060208201905081810360008301526119c78161198b565b9050919050565b60008190508160005260206000209050919050565b60006020601f8301049050919050565b600082821b905092915050565b600060088302611a307fffffffffffffffffffffffffffffffffffffffffffffffffffffffffffffffff826119f3565b611a3a86836119f3565b95508019841693508086168417925050509392505050565b6000819050919050565b6000611a77611a72611a6d84611590565b611a52565b611590565b9050919050565b6000819050919050565b611a9183611a5c565b611aa5611a9d82611a7e565b848454611a00565b825550505050565b600090565b611aba611aad565b611ac5818484611a88565b505050565b5b81811015611ae957611ade600082611ab2565b600181019050611acb565b5050565b601f821115611b2e57611aff816119ce565b611b08846119e3565b81016020851015611b17578190505b611b2b611b23856119e3565b830182611aca565b50505b505050565b600082821c905092915050565b6000611b5160001984600802611b33565b1980831691505092915050565b6000611b6a8383611b40565b9150826002028217905092915050565b611b83826118da565b67ffffffffffffffff811115611b9c57611b9b611465565b5b611ba6825461182c565b611bb1828285611aed565b600060209050601f831160018114611be45760008415611bd2578287015190505b611bdc8582611b5e565b865550611c44565b601f198416611bf2866119ce565b60005b82811015611c1a57848901518255600182019150602085019450602081019050611bf5565b86831015611c375784890151611c33601f891682611b40565b8355505b6001600288020188555050505b505050505050565b7f4e487b7100000000000000000000000000000000000000000000000000000000600052601160045260246000fd5b6000611c8682611590565b91507fffffffffffffffffffffffffffffffffffffffffffffffffffffffffffffffff8203611cb857611cb7611c4c565b5b600182019050919050565b7f557365724e616d652063616e6e6f7420626520656d7074790000000000000000600082015250565b6000611cf960188361185d565b9150611d0482611cc3565b602082019050919050565b60006020820190508181036000830152611d2881611cec565b9050919050565b7f557365724e616d6520616c72656164792074616b656e00000000000000000000600082015250565b6000611d6560168361185d565b9150611d7082611d2f565b602082019050919050565b60006020820190508181036000830152611d9481611d58565b9050919050565b7f536f6e67206f662074686973206861736820646f6573206e6f7420657869737460008201527f732e000000000000000000000000000000000000000000000000000000000000602082015250565b6000611df760228361185d565b9150611e0282611d9b565b604082019050919050565b60006020820190508181036000830152611e2681611dea565b9050919050565b7f536f6e6720616c7265616479206c696b65642062792074686520757365722e00600082015250565b6000611e63601f8361185d565b9150611e6e82611e2d565b602082019050919050565b60006020820190508181036000830152611e9281611e56565b9050919050565b6000611ea482611590565b9150611eaf83611590565b9250828201905080821115611ec757611ec6611c4c565b5b92915050565b7f536f6e6720616c7265616479206469736c696b6564206279207468652075736560008201527f722e000000000000000000000000000000000000000000000000000000000000602082015250565b6000611f2960228361185d565b9150611f3482611ecd565b604082019050919050565b60006020820190508181036000830152611f5881611f1c565b9050919050565b6000611f6a82611590565b9150611f7583611590565b9250828203905081811115611f8d57611f8c611c4c565b5b92915050565b7f536f6e6720616c7265616479207075726368617365642062792074686520757360008201527f65722e0000000000000000000000000000000000000000000000000000000000602082015250565b6000611fef60238361185d565b9150611ffa82611f93565b604082019050919050565b6000602082019050818103600083015261201e81611fe2565b9050919050565b600061203082611590565b915061203b83611590565b925082820261204981611590565b915082820484148315176120605761205f611c4c565b5b5092915050565b7f416d6f756e74206973206e6f7420657175616c20746f20736f6e67277320636f60008201527f73742e0000000000000000000000000000000000000000000000000000000000602082015250565b60006120c360238361185d565b91506120ce82612067565b604082019050919050565b600060208201905081810360008301526120f2816120b6565b905091905056fea26469706673582212203a62c8da79fc77048f0f8119248cb95056e2163d001e9160eafd3b23d0f028dc64736f6c63430008130033",
  "immutableReferences": {},
  "source": "// SPDX-License-Identifier: MIT\npragma solidity ^0.8.11;\n\ncontract Blockify {\n    \n    uint public constant CHANGE = 0.01 ether;\n\n    struct Song {\n        string name;\n        string hash;\n        address payable artistAddr;\n        uint256 cost;\n    }\n\n    struct User {\n        address addr;\n        string name;\n        string[] songsBought;\n        mapping(string => uint8) songStatus; // 0->default; 1->owned; 2->disliked; 3->liked\n        string[] songsOwned; // User is artist of those songs\n    }\n\n\n    uint256 songsCount;\n    uint256 usersCount;\n    uint256 artistsCount;\n\n    mapping(address => User) allUsersByAddress;\n    mapping(address => User) allArtistsByAddress;\n    mapping(string => Song) allSongsByHash;\n    mapping(string => bool) isUserNameTaken;\n\n\n    modifier registeredUser(address addr){\n        require(!compareStrings(allUsersByAddress[addr].name,\"\"), \"User not registered.\");\n        _;\n    }\n\n    modifier validSongHash(string memory songHash){\n        require(!compareStrings(allSongsByHash[songHash].name, \"\"), \"Song of this hash does not exists.\");\n        _;\n    }\n\n\n    constructor () {\n        songsCount = 0;\n        usersCount = 0;\n        artistsCount = 0;\n    }\n\n\n    event UserRegisterEvent(\n        string userName,\n        address addr\n    );\n\n    function registerUser(\n        string memory userName) \n        public {\n        \n        // check if userName is not empty and if it does not exists already\n        require(!compareStrings(userName, \"\"), \"UserName cannot be empty\");\n        require(!isUserNameTaken[userName], \"UserName already taken\");\n\n        User storage user = allUsersByAddress[msg.sender];\n        user.name = userName;\n        usersCount++;\n    }\n\n\n    event SongUploadEvent(\n        string name,\n        string hash,\n        address payable artistAddr,\n        uint256 cost\n    );\n\n    function uploadSong(\n        string memory songName,\n        string memory songHash,\n        uint256 songCost) \n        public registeredUser(msg.sender) {\n\n        // check if hash of the song already exists\n        require(!compareStrings(allSongsByHash[songHash].name,\"\"), \"Song already exists\");\n        \n        Song storage song = allSongsByHash[songHash];\n        song.name = songName;\n        song.hash = songHash;\n        song.cost = songCost;\n        song.artistAddr = payable(msg.sender);\n        songsCount++;\n    }\n\n\n    event SongPurchaseEvent(\n        string name,\n        string hash,\n        address payable artistAddr,\n        uint256 cost,\n        address buyerAddr\n    );\n\n    function purchaseSong(\n        string memory songHash) \n        public payable \n        registeredUser(msg.sender) \n        validSongHash(songHash) {\n\n        // check if \n        // 1. user already owns the song\n        // 2. if the amount equals the cost of the song\n        require(allUsersByAddress[msg.sender].songStatus[songHash] == 0, \"Song already purchased by the user.\");\n        require(allSongsByHash[songHash].cost * 1 wei == msg.value, \"Amount is not equal to song's cost.\");\n\n        // transfer the money to artist of the song\n        allSongsByHash[songHash].artistAddr.transfer(msg.value);\n\n        // add the song to user's ownedSongs list\n        allUsersByAddress[msg.sender].songsBought.push(songHash);   \n    }\n\n\n    event SongLikedEvent(\n        string songHash,\n        uint256 updatedCost\n    );\n\n    function likeSong(\n        string memory songHash) \n        public \n        registeredUser(msg.sender) \n        validSongHash(songHash) {\n        \n        require(allUsersByAddress[msg.sender].songStatus[songHash] != 3, \"Song already liked by the user.\");\n\n        allSongsByHash[songHash].cost += CHANGE ; // increase popularity\n        allUsersByAddress[msg.sender].songStatus[songHash] = 3; //mark as liked\n    }\n\n    event SongDislikedEvent(\n        string songHash,\n        uint256 updatedCost\n    );\n\n    function dislikeSong(\n        string memory songHash) \n        public \n        registeredUser(msg.sender) \n        validSongHash(songHash) {\n            \n        require(allUsersByAddress[msg.sender].songStatus[songHash] != 2, \"Song already disliked by the user.\");\n\n        allSongsByHash[songHash].cost -= CHANGE; // decrease popularity\n        allUsersByAddress[msg.sender].songStatus[songHash] = 2; //mark as disliked\n    }\n\n\n    event ArtistDonatedEvent(\n        uint256 amount,\n        address payable artistAddr,\n        address donarAddr\n    );\n\n    function donateToArtist(\n        address payable artistAddress) \n        public payable \n        registeredUser(msg.sender) \n        registeredUser(artistAddress){\n\n        // donate amount to artist\n        artistAddress.transfer(msg.value);\n    }\n\n\n    function compareStrings(string memory a, string memory b) public pure returns (bool) {\n        return keccak256(abi.encodePacked(a)) == keccak256(abi.encodePacked(b));\n    }\n\n\n}",
  "sourcePath": "/Users/invenstphoneone/tejas/blockchain/Blockify/contracts/Blockify.sol",
  "compiler": {
    "name": "solc",
    "version": "0.8.19+commit.7dd6d404.Emscripten.clang"
  },
  "schemaVersion": "3.4.13",
  "updatedAt": "2023-04-27T15:15:18.935Z",
  "devdoc": {
    "kind": "dev",
    "methods": {},
    "version": 1
  },
  "userdoc": {
    "kind": "user",
    "methods": {},
    "version": 1
  }
}