{
  "contractName": "SongSC",
  "abi": [
    {
      "inputs": [],
      "stateMutability": "nonpayable",
      "type": "constructor"
    },
    {
      "inputs": [
        {
          "components": [
            {
              "internalType": "string",
              "name": "id",
              "type": "string"
            },
            {
              "internalType": "string",
              "name": "name",
              "type": "string"
            }
          ],
          "internalType": "struct SongSC.Song",
          "name": "song",
          "type": "tuple"
        }
      ],
      "name": "addSong",
      "outputs": [],
      "stateMutability": "nonpayable",
      "type": "function"
    },
    {
      "inputs": [],
      "name": "getAllSongs",
      "outputs": [
        {
          "components": [
            {
              "internalType": "string",
              "name": "id",
              "type": "string"
            },
            {
              "internalType": "string",
              "name": "name",
              "type": "string"
            }
          ],
          "internalType": "struct SongSC.Song[]",
          "name": "songs",
          "type": "tuple[]"
        }
      ],
      "stateMutability": "view",
      "type": "function"
    }
  ],
  "bytecode": "0x60806040523480156200001157600080fd5b506200001c620001a9565b6040518060400160405280600481526020017f736964310000000000000000000000000000000000000000000000000000000081525081600001819052506040518060400160405280600681526020017f536f6e67203100000000000000000000000000000000000000000000000000008152508160200181905250620000a9816200014860201b60201c565b620000b3620001a9565b6040518060400160405280600481526020017f736964320000000000000000000000000000000000000000000000000000000081525081600001819052506040518060400160405280600681526020017f536f6e6720320000000000000000000000000000000000000000000000000000815250816020018190525062000140816200014860201b60201c565b505062000524565b600081908060018154018082558091505060019003906000526020600020906002020160009091909190915060008201518160000190816200018b91906200043d565b506020820151816001019081620001a391906200043d565b50505050565b604051806040016040528060608152602001606081525090565b600081519050919050565b7f4e487b7100000000000000000000000000000000000000000000000000000000600052604160045260246000fd5b7f4e487b7100000000000000000000000000000000000000000000000000000000600052602260045260246000fd5b600060028204905060018216806200024557607f821691505b6020821081036200025b576200025a620001fd565b5b50919050565b60008190508160005260206000209050919050565b60006020601f8301049050919050565b600082821b905092915050565b600060088302620002c57fffffffffffffffffffffffffffffffffffffffffffffffffffffffffffffffff8262000286565b620002d1868362000286565b95508019841693508086168417925050509392505050565b6000819050919050565b6000819050919050565b60006200031e620003186200031284620002e9565b620002f3565b620002e9565b9050919050565b6000819050919050565b6200033a83620002fd565b62000352620003498262000325565b84845462000293565b825550505050565b600090565b620003696200035a565b620003768184846200032f565b505050565b5b818110156200039e57620003926000826200035f565b6001810190506200037c565b5050565b601f821115620003ed57620003b78162000261565b620003c28462000276565b81016020851015620003d2578190505b620003ea620003e18562000276565b8301826200037b565b50505b505050565b600082821c905092915050565b60006200041260001984600802620003f2565b1980831691505092915050565b60006200042d8383620003ff565b9150826002028217905092915050565b6200044882620001c3565b67ffffffffffffffff811115620004645762000463620001ce565b5b6200047082546200022c565b6200047d828285620003a2565b600060209050601f831160018114620004b55760008415620004a0578287015190505b620004ac85826200041f565b8655506200051c565b601f198416620004c58662000261565b60005b82811015620004ef57848901518255600182019150602085019450602081019050620004c8565b868310156200050f57848901516200050b601f891682620003ff565b8355505b6001600288020188555050505b505050505050565b61094f80620005346000396000f3fe608060405234801561001057600080fd5b50600436106100365760003560e01c806329ef68621461003b578063a137e82a14610059575b600080fd5b610043610075565b60405161005091906103eb565b60405180910390f35b610073600480360381019061006e91906105e8565b6101f8565b005b60606000805480602002602001604051908101604052809291908181526020016000905b828210156101ef57838290600052602060002090600202016040518060400160405290816000820180546100cc90610660565b80601f01602080910402602001604051908101604052809291908181526020018280546100f890610660565b80156101455780601f1061011a57610100808354040283529160200191610145565b820191906000526020600020905b81548152906001019060200180831161012857829003601f168201915b5050505050815260200160018201805461015e90610660565b80601f016020809104026020016040519081016040528092919081815260200182805461018a90610660565b80156101d75780601f106101ac576101008083540402835291602001916101d7565b820191906000526020600020905b8154815290600101906020018083116101ba57829003601f168201915b50505050508152505081526020019060010190610099565b50505050905090565b600081908060018154018082558091505060019003906000526020600020906002020160009091909190915060008201518160000190816102399190610847565b50602082015181600101908161024f9190610847565b50505050565b600081519050919050565b600082825260208201905092915050565b6000819050602082019050919050565b600081519050919050565b600082825260208201905092915050565b60005b838110156102bb5780820151818401526020810190506102a0565b60008484015250505050565b6000601f19601f8301169050919050565b60006102e382610281565b6102ed818561028c565b93506102fd81856020860161029d565b610306816102c7565b840191505092915050565b6000604083016000830151848203600086015261032e82826102d8565b9150506020830151848203602086015261034882826102d8565b9150508091505092915050565b60006103618383610311565b905092915050565b6000602082019050919050565b600061038182610255565b61038b8185610260565b93508360208202850161039d85610271565b8060005b858110156103d957848403895281516103ba8582610355565b94506103c583610369565b925060208a019950506001810190506103a1565b50829750879550505050505092915050565b600060208201905081810360008301526104058184610376565b905092915050565b6000604051905090565b600080fd5b600080fd5b600080fd5b7f4e487b7100000000000000000000000000000000000000000000000000000000600052604160045260246000fd5b61045e826102c7565b810181811067ffffffffffffffff8211171561047d5761047c610426565b5b80604052505050565b600061049061040d565b905061049c8282610455565b919050565b600080fd5b600080fd5b600080fd5b600067ffffffffffffffff8211156104cb576104ca610426565b5b6104d4826102c7565b9050602081019050919050565b82818337600083830152505050565b60006105036104fe846104b0565b610486565b90508281526020810184848401111561051f5761051e6104ab565b5b61052a8482856104e1565b509392505050565b600082601f830112610547576105466104a6565b5b81356105578482602086016104f0565b91505092915050565b60006040828403121561057657610575610421565b5b6105806040610486565b9050600082013567ffffffffffffffff8111156105a05761059f6104a1565b5b6105ac84828501610532565b600083015250602082013567ffffffffffffffff8111156105d0576105cf6104a1565b5b6105dc84828501610532565b60208301525092915050565b6000602082840312156105fe576105fd610417565b5b600082013567ffffffffffffffff81111561061c5761061b61041c565b5b61062884828501610560565b91505092915050565b7f4e487b7100000000000000000000000000000000000000000000000000000000600052602260045260246000fd5b6000600282049050600182168061067857607f821691505b60208210810361068b5761068a610631565b5b50919050565b60008190508160005260206000209050919050565b60006020601f8301049050919050565b600082821b905092915050565b6000600883026106f37fffffffffffffffffffffffffffffffffffffffffffffffffffffffffffffffff826106b6565b6106fd86836106b6565b95508019841693508086168417925050509392505050565b6000819050919050565b6000819050919050565b600061074461073f61073a84610715565b61071f565b610715565b9050919050565b6000819050919050565b61075e83610729565b61077261076a8261074b565b8484546106c3565b825550505050565b600090565b61078761077a565b610792818484610755565b505050565b5b818110156107b6576107ab60008261077f565b600181019050610798565b5050565b601f8211156107fb576107cc81610691565b6107d5846106a6565b810160208510156107e4578190505b6107f86107f0856106a6565b830182610797565b50505b505050565b600082821c905092915050565b600061081e60001984600802610800565b1980831691505092915050565b6000610837838361080d565b9150826002028217905092915050565b61085082610281565b67ffffffffffffffff81111561086957610868610426565b5b6108738254610660565b61087e8282856107ba565b600060209050601f8311600181146108b1576000841561089f578287015190505b6108a9858261082b565b865550610911565b601f1984166108bf86610691565b60005b828110156108e7578489015182556001820191506020850194506020810190506108c2565b868310156109045784890151610900601f89168261080d565b8355505b6001600288020188555050505b50505050505056fea264697066735822122031c19b0f8dbf2769c22020b427cfb5b60c2b98bb6ff7674bc4463f0de660224664736f6c63430008130033",
  "immutableReferences": {},
  "source": "// SPDX-License-Identifier: MIT\npragma solidity <=0.8.19;\n\ncontract SongSC {\n    \n    struct Song {\n        string id;\n        string name;\n    }\n\n    Song[] allSongs;\n\n\n    constructor () public {\n        Song memory s1;\n        s1.id = \"sid1\";\n        s1.name = \"Song 1\";\n        addSong(s1);\n\n        Song memory s2;\n        s2.id = \"sid2\";\n        s2.name = \"Song 2\";\n        addSong(s2);\n    }\n\n\n    function addSong(Song memory song) public {\n        allSongs.push(song);\n    }\n \n    function getAllSongs() external view returns(Song[] memory songs) {\n        return allSongs;\n    }\n\n}",
  "sourcePath": "/Users/invenstphoneone/tejas/blockchain/Blockify/contracts/SongSC.sol",
  "compiler": {
    "name": "solc",
    "version": "0.8.19+commit.7dd6d404.Emscripten.clang"
  },
  "schemaVersion": "3.4.13",
  "updatedAt": "2023-03-25T01:25:10.221Z",
  "devdoc": {
    "kind": "dev",
    "methods": {},
    "version": 1
  },
  "userdoc": {
    "kind": "user",
    "methods": {},
    "version": 1
  }
}